{
  "contractName": "AModernWay",
  "abi": [
    {
      "constant": false,
      "inputs": [
        {
          "internalType": "string",
          "name": "itemName",
          "type": "string"
        },
        {
          "internalType": "string",
          "name": "itemDescription",
          "type": "string"
        }
      ],
      "name": "addNewItem",
      "outputs": [],
      "payable": false,
      "stateMutability": "nonpayable",
      "type": "function"
    },
    {
      "constant": false,
      "inputs": [
        {
          "internalType": "uint256",
          "name": "itemID",
          "type": "uint256"
        },
        {
          "internalType": "string",
          "name": "auctionType",
          "type": "string"
        }
      ],
      "name": "startAuction",
      "outputs": [],
      "payable": false,
      "stateMutability": "nonpayable",
      "type": "function"
    },
    {
      "constant": false,
      "inputs": [
        {
          "internalType": "uint256",
          "name": "itemID",
          "type": "uint256"
        },
        {
          "internalType": "bytes32",
          "name": "hashedBid",
          "type": "bytes32"
        }
      ],
      "name": "bidAtAuction",
      "outputs": [],
      "payable": false,
      "stateMutability": "nonpayable",
      "type": "function"
    },
    {
      "constant": false,
      "inputs": [
        {
          "internalType": "uint256",
          "name": "itemID",
          "type": "uint256"
        }
      ],
      "name": "stopBidding",
      "outputs": [],
      "payable": false,
      "stateMutability": "nonpayable",
      "type": "function"
    },
    {
      "constant": false,
      "inputs": [
        {
          "internalType": "uint256",
          "name": "itemID",
          "type": "uint256"
        },
        {
          "internalType": "string",
          "name": "publicKey",
          "type": "string"
        }
      ],
      "name": "payAndVerifyBid",
      "outputs": [],
      "payable": true,
      "stateMutability": "payable",
      "type": "function"
    },
    {
      "constant": false,
      "inputs": [
        {
          "internalType": "uint256",
          "name": "itemID",
          "type": "uint256"
        }
      ],
      "name": "stopAuction",
      "outputs": [],
      "payable": false,
      "stateMutability": "nonpayable",
      "type": "function"
    },
    {
      "constant": true,
      "inputs": [
        {
          "internalType": "uint256",
          "name": "itemID",
          "type": "uint256"
        }
      ],
      "name": "getWinnerPublicKey",
      "outputs": [
        {
          "internalType": "string",
          "name": "",
          "type": "string"
        }
      ],
      "payable": false,
      "stateMutability": "view",
      "type": "function"
    },
    {
      "constant": false,
      "inputs": [
        {
          "internalType": "uint256",
          "name": "itemID",
          "type": "uint256"
        },
        {
          "internalType": "string",
          "name": "encryptedItem",
          "type": "string"
        },
        {
          "internalType": "string",
          "name": "publicKey",
          "type": "string"
        }
      ],
      "name": "deliverItem",
      "outputs": [],
      "payable": false,
      "stateMutability": "nonpayable",
      "type": "function"
    },
    {
      "constant": true,
      "inputs": [
        {
          "internalType": "uint256",
          "name": "itemID",
          "type": "uint256"
        }
      ],
      "name": "getSellerPublicKey",
      "outputs": [
        {
          "internalType": "string",
          "name": "",
          "type": "string"
        }
      ],
      "payable": false,
      "stateMutability": "view",
      "type": "function"
    },
    {
      "constant": true,
      "inputs": [
        {
          "internalType": "uint256",
          "name": "itemID",
          "type": "uint256"
        }
      ],
      "name": "getItem",
      "outputs": [
        {
          "internalType": "string",
          "name": "",
          "type": "string"
        }
      ],
      "payable": false,
      "stateMutability": "view",
      "type": "function"
    },
    {
      "constant": true,
      "inputs": [],
      "name": "viewItemsForBidding",
      "outputs": [
        {
          "internalType": "string",
          "name": "",
          "type": "string"
        }
      ],
      "payable": false,
      "stateMutability": "view",
      "type": "function"
    }
  ],
  "bytecode": "0x60806040526000805534801561001457600080fd5b50613548806100246000396000f3fe60806040526004361061009c5760003560e01c80635e56cbf3116100645780635e56cbf31461039957806365022f1e146104f85780637bb8e8bc1461053d578063b583b3051461060f578063c06882b214610778578063f510f6ae1461082c5761009c565b8063021baa16146100a157806305914701146100dc5780633129e773146101a15780634c2e1e8e1461025557806356bb362b14610309575b600080fd5b3480156100ad57600080fd5b506100da600480360360208110156100c457600080fd5b8101908080359060200190929190505050610867565b005b61019f600480360360408110156100f257600080fd5b81019080803590602001909291908035906020019064010000000081111561011957600080fd5b82018360208201111561012b57600080fd5b8035906020019184600183028401116401000000008311171561014d57600080fd5b91908080601f016020809104026020016040519081016040528093929190818152602001838380828437600081840152601f19601f820116905080830192505050505050509192919290505050610a7c565b005b3480156101ad57600080fd5b506101da600480360360208110156101c457600080fd5b8101908080359060200190929190505050610ee6565b6040518080602001828103825283818151815260200191508051906020019080838360005b8381101561021a5780820151818401526020810190506101ff565b50505050905090810190601f1680156102475780820380516001836020036101000a031916815260200191505b509250505060405180910390f35b34801561026157600080fd5b5061028e6004803603602081101561027857600080fd5b8101908080359060200190929190505050611195565b6040518080602001828103825283818151815260200191508051906020019080838360005b838110156102ce5780820151818401526020810190506102b3565b50505050905090810190601f1680156102fb5780820380516001836020036101000a031916815260200191505b509250505060405180910390f35b34801561031557600080fd5b5061031e61142d565b6040518080602001828103825283818151815260200191508051906020019080838360005b8381101561035e578082015181840152602081019050610343565b50505050905090810190601f16801561038b5780820380516001836020036101000a031916815260200191505b509250505060405180910390f35b3480156103a557600080fd5b506104f6600480360360408110156103bc57600080fd5b81019080803590602001906401000000008111156103d957600080fd5b8201836020820111156103eb57600080fd5b8035906020019184600183028401116401000000008311171561040d57600080fd5b91908080601f016020809104026020016040519081016040528093929190818152602001838380828437600081840152601f19601f8201169050808301925050505050505091929192908035906020019064010000000081111561047057600080fd5b82018360208201111561048257600080fd5b803590602001918460018302840111640100000000831117156104a457600080fd5b91908080601f016020809104026020016040519081016040528093929190818152602001838380828437600081840152601f19601f8201169050808301925050505050505091929192905050506119b9565b005b34801561050457600080fd5b5061053b6004803603604081101561051b57600080fd5b810190808035906020019092919080359060200190929190505050611bfb565b005b34801561054957600080fd5b5061060d6004803603604081101561056057600080fd5b81019080803590602001909291908035906020019064010000000081111561058757600080fd5b82018360208201111561059957600080fd5b803590602001918460018302840111640100000000831117156105bb57600080fd5b91908080601f016020809104026020016040519081016040528093929190818152602001838380828437600081840152601f19601f820116905080830192505050505050509192919290505050611ff5565b005b34801561061b57600080fd5b506107766004803603606081101561063257600080fd5b81019080803590602001909291908035906020019064010000000081111561065957600080fd5b82018360208201111561066b57600080fd5b8035906020019184600183028401116401000000008311171561068d57600080fd5b91908080601f016020809104026020016040519081016040528093929190818152602001838380828437600081840152601f19601f820116905080830192505050505050509192919290803590602001906401000000008111156106f057600080fd5b82018360208201111561070257600080fd5b8035906020019184600183028401116401000000008311171561072457600080fd5b91908080601f016020809104026020016040519081016040528093929190818152602001838380828437600081840152601f19601f820116905080830192505050505050509192919290505050612297565b005b34801561078457600080fd5b506107b16004803603602081101561079b57600080fd5b8101908080359060200190929190505050612536565b6040518080602001828103825283818151815260200191508051906020019080838360005b838110156107f15780820151818401526020810190506107d6565b50505050905090810190601f16801561081e5780820380516001836020036101000a031916815260200191505b509250505060405180910390f35b34801561083857600080fd5b506108656004803603602081101561084f57600080fd5b8101908080359060200190929190505050612765565b005b60005481106108de576040517f08c379a00000000000000000000000000000000000000000000000000000000081526004018080602001828103825260108152602001807f496e76616c6964206974656d204944210000000000000000000000000000000081525060200191505060405180910390fd5b600160048111156108eb57fe5b600282815481106108f857fe5b906000526020600020906009020160030160149054906101000a900460ff16600481111561092257fe5b14610978576040517f08c379a00000000000000000000000000000000000000000000000000000000081526004018080602001828103825260348152602001806133396034913960400191505060405180910390fd5b6002818154811061098557fe5b906000526020600020906009020160030160009054906101000a900473ffffffffffffffffffffffffffffffffffffffff1673ffffffffffffffffffffffffffffffffffffffff163373ffffffffffffffffffffffffffffffffffffffff1614610a3a576040517f08c379a000000000000000000000000000000000000000000000000000000000815260040180806020018281038252602181526020018061342c6021913960400191505060405180910390fd5b6002808281548110610a4857fe5b906000526020600020906009020160030160146101000a81548160ff02191690836004811115610a7457fe5b021790555050565b6000548210610af3576040517f08c379a00000000000000000000000000000000000000000000000000000000081526004018080602001828103825260108152602001807f496e76616c6964206974656d204944210000000000000000000000000000000081525060200191505060405180910390fd5b60026004811115610b0057fe5b60028381548110610b0d57fe5b906000526020600020906009020160030160149054906101000a900460ff166004811115610b3757fe5b14610b8d576040517f08c379a00000000000000000000000000000000000000000000000000000000081526004018080602001828103825260378152602001806134dd6037913960400191505060405180910390fd5b60028281548110610b9a57fe5b906000526020600020906009020160060160010160003373ffffffffffffffffffffffffffffffffffffffff1673ffffffffffffffffffffffffffffffffffffffff168152602001908152602001600020600001543433604051602001808381526020018273ffffffffffffffffffffffffffffffffffffffff1673ffffffffffffffffffffffffffffffffffffffff1660601b8152601401925050506040516020818303038152906040528051906020012014610cc0576040517f08c379a000000000000000000000000000000000000000000000000000000000815260040180806020018281038252600b8152602001807f57726f6e6720486173682100000000000000000000000000000000000000000081525060200191505060405180910390fd5b6000151560028381548110610cd157fe5b906000526020600020906009020160060160010160003373ffffffffffffffffffffffffffffffffffffffff1673ffffffffffffffffffffffffffffffffffffffff16815260200190815260200160002060020160009054906101000a900460ff16151514610da8576040517f08c379a00000000000000000000000000000000000000000000000000000000081526004018080602001828103825260118152602001807f416c72656164792076657269666965642100000000000000000000000000000081525060200191505060405180910390fd5b60003390503460028481548110610dbb57fe5b906000526020600020906009020160060160010160008373ffffffffffffffffffffffffffffffffffffffff1673ffffffffffffffffffffffffffffffffffffffff16815260200190815260200160002060010181905550600160028481548110610e2257fe5b906000526020600020906009020160060160010160008373ffffffffffffffffffffffffffffffffffffffff1673ffffffffffffffffffffffffffffffffffffffff16815260200190815260200160002060020160006101000a81548160ff02191690831515021790555081600160008373ffffffffffffffffffffffffffffffffffffffff1673ffffffffffffffffffffffffffffffffffffffff1681526020019081526020016000209080519060200190610ee0929190613048565b50505050565b60606000548210610f5f576040517f08c379a00000000000000000000000000000000000000000000000000000000081526004018080602001828103825260108152602001807f496e76616c6964206974656d204944210000000000000000000000000000000081525060200191505060405180910390fd5b600480811115610f6b57fe5b60028381548110610f7857fe5b906000526020600020906009020160030160149054906101000a900460ff166004811115610fa257fe5b14610ff8576040517f08c379a000000000000000000000000000000000000000000000000000000000815260040180806020018281038252604181526020018061346e6041913960600191505060405180910390fd5b6002828154811061100557fe5b906000526020600020906009020160040160009054906101000a900473ffffffffffffffffffffffffffffffffffffffff1673ffffffffffffffffffffffffffffffffffffffff163373ffffffffffffffffffffffffffffffffffffffff16146110d7576040517f08c379a000000000000000000000000000000000000000000000000000000000815260040180806020018281038252601d8152602001807f4f6e6c792077696e6e65722063616e2067657420746865206974656d2100000081525060200191505060405180910390fd5b600282815481106110e457fe5b90600052602060002090600902016005018054600181600116156101000203166002900480601f0160208091040260200160405190810160405280929190818152602001828054600181600116156101000203166002900480156111895780601f1061115e57610100808354040283529160200191611189565b820191906000526020600020905b81548152906001019060200180831161116c57829003601f168201915b50505050509050919050565b6060600054821061120e576040517f08c379a00000000000000000000000000000000000000000000000000000000081526004018080602001828103825260108152602001807f496e76616c6964206974656d204944210000000000000000000000000000000081525060200191505060405180910390fd5b6003600481111561121b57fe5b6002838154811061122857fe5b906000526020600020906009020160030160149054906101000a900460ff16600481111561125257fe5b148061129e575060048081111561126557fe5b6002838154811061127257fe5b906000526020600020906009020160030160149054906101000a900460ff16600481111561129c57fe5b145b611310576040517f08c379a000000000000000000000000000000000000000000000000000000000815260040180806020018281038252601b8152602001807f57696e6e6572206973206e6f74206465636c617265642079657421000000000081525060200191505060405180910390fd5b600160006002848154811061132157fe5b906000526020600020906009020160040160009054906101000a900473ffffffffffffffffffffffffffffffffffffffff1673ffffffffffffffffffffffffffffffffffffffff1673ffffffffffffffffffffffffffffffffffffffff1681526020019081526020016000208054600181600116156101000203166002900480601f0160208091040260200160405190810160405280929190818152602001828054600181600116156101000203166002900480156114215780601f106113f657610100808354040283529160200191611421565b820191906000526020600020905b81548152906001019060200180831161140457829003601f168201915b50505050509050919050565b60608060405180602001604052806000815250905060008090505b6002805490508110156119b1576001600481111561146257fe5b6002828154811061146f57fe5b906000526020600020906009020160030160149054906101000a900460ff16600481111561149957fe5b14156119a457816040516020018082805190602001908083835b602083106114d657805182526020820191506020810190506020830392506114b3565b6001836020036101000a038019825116818451168082178552505050505050905001807f49443a200000000000000000000000000000000000000000000000000000000081525060040191505060405160208183030381529060405291508161155c6002838154811061154557fe5b906000526020600020906009020160000154612984565b6040516020018083805190602001908083835b60208310611592578051825260208201915060208101905060208303925061156f565b6001836020036101000a03801982511681845116808217855250505050505090500182805190602001908083835b602083106115e357805182526020820191506020810190506020830392506115c0565b6001836020036101000a038019825116818451168082178552505050505050905001925050506040516020818303038152906040529150816040516020018082805190602001908083835b60208310611651578051825260208201915060208101905060208303925061162e565b6001836020036101000a038019825116818451168082178552505050505050905001807f3b204e616d653a20000000000000000000000000000000000000000000000000815250600801915050604051602081830303815290604052915081600282815481106116bd57fe5b90600052602060002090600902016001016040516020018083805190602001908083835b6020831061170457805182526020820191506020810190506020830392506116e1565b6001836020036101000a0380198251168184511680821785525050505050509050018280546001816001161561010002031660029004801561177d5780601f1061175b57610100808354040283529182019161177d565b820191906000526020600020905b815481529060010190602001808311611769575b5050925050506040516020818303038152906040529150816040516020018082805190602001908083835b602083106117cb57805182526020820191506020810190506020830392506117a8565b6001836020036101000a038019825116818451168082178552505050505050905001807f3b204465736372697074696f6e3a200000000000000000000000000000000000815250600f019150506040516020818303038152906040529150816002828154811061183757fe5b90600052602060002090600902016002016040516020018083805190602001908083835b6020831061187e578051825260208201915060208101905060208303925061185b565b6001836020036101000a038019825116818451168082178552505050505050905001828054600181600116156101000203166002900480156118f75780601f106118d55761010080835404028352918201916118f7565b820191906000526020600020905b8154815290600101906020018083116118e3575b5050925050506040516020818303038152906040529150816040516020018082805190602001908083835b602083106119455780518252602082019150602081019050602083039250611922565b6001836020036101000a038019825116818451168082178552505050505050905001807f0a0000000000000000000000000000000000000000000000000000000000000081525060010191505060405160208183030381529060405291505b8080600101915050611448565b508091505090565b6119c16130c8565b6000808154809291906001019190505581600001818152505082816020018190525081816040018190525033816060019073ffffffffffffffffffffffffffffffffffffffff16908173ffffffffffffffffffffffffffffffffffffffff1681525050600081608001906004811115611a3657fe5b90816004811115611a4357fe5b8152505060405180608001604052806041815260200161346e604191398160c0018190525060028190806001815401808255809150509060018203906000526020600020906009020160009091929091909150600082015181600001556020820151816001019080519060200190611abc92919061314a565b506040820151816002019080519060200190611ad992919061314a565b5060608201518160030160006101000a81548173ffffffffffffffffffffffffffffffffffffffff021916908373ffffffffffffffffffffffffffffffffffffffff16021790555060808201518160030160146101000a81548160ff02191690836004811115611b4557fe5b021790555060a08201518160040160006101000a81548173ffffffffffffffffffffffffffffffffffffffff021916908373ffffffffffffffffffffffffffffffffffffffff16021790555060c0820151816005019080519060200190611bad92919061314a565b5060e0820151816006016000820151816000019080519060200190611bd392919061314a565b506020820151816002019080519060200190611bf09291906131ca565b505050505050505050565b6000548210611c72576040517f08c379a00000000000000000000000000000000000000000000000000000000081526004018080602001828103825260108152602001807f496e76616c6964206974656d204944210000000000000000000000000000000081525060200191505060405180910390fd5b60016004811115611c7f57fe5b60028381548110611c8c57fe5b906000526020600020906009020160030160149054906101000a900460ff166004811115611cb657fe5b14611d29576040517f08c379a000000000000000000000000000000000000000000000000000000000815260040180806020018281038252601f8152602001807f4974656d206e6f7420617661696c61626c6520666f722062696464696e67210081525060200191505060405180910390fd5b60028281548110611d3657fe5b906000526020600020906009020160030160009054906101000a900473ffffffffffffffffffffffffffffffffffffffff1673ffffffffffffffffffffffffffffffffffffffff163373ffffffffffffffffffffffffffffffffffffffff161415611e09576040517f08c379a000000000000000000000000000000000000000000000000000000000815260040180806020018281038252601e8152602001807f53656c6c65722063616e206e6f7420627579207468656972206974656d21000081525060200191505060405180910390fd5b6040516020018060000190506040516020818303038152906040528051906020012060028381548110611e3857fe5b906000526020600020906009020160060160010160003373ffffffffffffffffffffffffffffffffffffffff1673ffffffffffffffffffffffffffffffffffffffff1681526020019081526020016000206000015414611f00576040517f08c379a00000000000000000000000000000000000000000000000000000000081526004018080602001828103825260128152602001807f43616e206f6e6c7920626964206f6e636521000000000000000000000000000081525060200191505060405180910390fd5b60003390508160028481548110611f1357fe5b906000526020600020906009020160060160010160008373ffffffffffffffffffffffffffffffffffffffff1673ffffffffffffffffffffffffffffffffffffffff1681526020019081526020016000206000018190555060028381548110611f7857fe5b90600052602060002090600902016006016002013390806001815401808255809150509060018203906000526020600020016000909192909190916101000a81548173ffffffffffffffffffffffffffffffffffffffff021916908373ffffffffffffffffffffffffffffffffffffffff16021790555050505050565b600054821061206c576040517f08c379a00000000000000000000000000000000000000000000000000000000081526004018080602001828103825260108152602001807f496e76616c6964206974656d204944210000000000000000000000000000000081525060200191505060405180910390fd5b6000600481111561207957fe5b6002838154811061208657fe5b906000526020600020906009020160030160149054906101000a900460ff1660048111156120b057fe5b14612123576040517f08c379a000000000000000000000000000000000000000000000000000000000815260040180806020018281038252601f8152602001807f4974656d206e6f7420617661696c61626c6520666f722061756374696f6e210081525060200191505060405180910390fd5b6002828154811061213057fe5b906000526020600020906009020160030160009054906101000a900473ffffffffffffffffffffffffffffffffffffffff1673ffffffffffffffffffffffffffffffffffffffff163373ffffffffffffffffffffffffffffffffffffffff16146121e5576040517f08c379a00000000000000000000000000000000000000000000000000000000081526004018080602001828103825260228152602001806133176022913960400191505060405180910390fd5b6121ed613254565b818160000181905250806002848154811061220457fe5b9060005260206000209060090201600601600082015181600001908051906020019061223192919061314a565b50602082015181600201908051906020019061224e9291906131ca565b5090505060016002848154811061226157fe5b906000526020600020906009020160030160146101000a81548160ff0219169083600481111561228d57fe5b0217905550505050565b600054831061230e576040517f08c379a00000000000000000000000000000000000000000000000000000000081526004018080602001828103825260108152602001807f496e76616c6964206974656d204944210000000000000000000000000000000081525060200191505060405180910390fd5b6003600481111561231b57fe5b6002848154811061232857fe5b906000526020600020906009020160030160149054906101000a900460ff16600481111561235257fe5b146123a8576040517f08c379a00000000000000000000000000000000000000000000000000000000081526004018080602001828103825260238152602001806134096023913960400191505060405180910390fd5b600283815481106123b557fe5b906000526020600020906009020160030160009054906101000a900473ffffffffffffffffffffffffffffffffffffffff1673ffffffffffffffffffffffffffffffffffffffff163373ffffffffffffffffffffffffffffffffffffffff161461246a576040517f08c379a000000000000000000000000000000000000000000000000000000000815260040180806020018281038252602181526020018061344d6021913960400191505060405180910390fd5b80600160003373ffffffffffffffffffffffffffffffffffffffff1673ffffffffffffffffffffffffffffffffffffffff16815260200190815260200160002090805190602001906124bd929190613048565b5081600284815481106124cc57fe5b906000526020600020906009020160050190805190602001906124f0929190613048565b5060046002848154811061250057fe5b906000526020600020906009020160030160146101000a81548160ff0219169083600481111561252c57fe5b0217905550505050565b606060005482106125af576040517f08c379a00000000000000000000000000000000000000000000000000000000081526004018080602001828103825260108152602001807f496e76616c6964206974656d204944210000000000000000000000000000000081525060200191505060405180910390fd5b6004808111156125bb57fe5b600283815481106125c857fe5b906000526020600020906009020160030160149054906101000a900460ff1660048111156125f257fe5b14612648576040517f08c379a000000000000000000000000000000000000000000000000000000000815260040180806020018281038252604c8152602001806133bd604c913960600191505060405180910390fd5b600160006002848154811061265957fe5b906000526020600020906009020160030160009054906101000a900473ffffffffffffffffffffffffffffffffffffffff1673ffffffffffffffffffffffffffffffffffffffff1673ffffffffffffffffffffffffffffffffffffffff1681526020019081526020016000208054600181600116156101000203166002900480601f0160208091040260200160405190810160405280929190818152602001828054600181600116156101000203166002900480156127595780601f1061272e57610100808354040283529160200191612759565b820191906000526020600020905b81548152906001019060200180831161273c57829003601f168201915b50505050509050919050565b60005481106127dc576040517f08c379a00000000000000000000000000000000000000000000000000000000081526004018080602001828103825260108152602001807f496e76616c6964206974656d204944210000000000000000000000000000000081525060200191505060405180910390fd5b600260048111156127e957fe5b600282815481106127f657fe5b906000526020600020906009020160030160149054906101000a900460ff16600481111561282057fe5b14612876576040517f08c379a000000000000000000000000000000000000000000000000000000000815260040180806020018281038252602e8152602001806134af602e913960400191505060405180910390fd5b6002818154811061288357fe5b906000526020600020906009020160030160009054906101000a900473ffffffffffffffffffffffffffffffffffffffff1673ffffffffffffffffffffffffffffffffffffffff163373ffffffffffffffffffffffffffffffffffffffff1614612938576040517f08c379a000000000000000000000000000000000000000000000000000000000815260040180806020018281038252602181526020018061336d6021913960400191505060405180910390fd5b60036002828154811061294757fe5b906000526020600020906009020160030160146101000a81548160ff0219169083600481111561297357fe5b021790555061298181612abd565b50565b606060008214156129cc576040518060400160405280600181526020017f30000000000000000000000000000000000000000000000000000000000000008152509050612ab8565b600082905060005b600082146129f6578080600101915050600a82816129ee57fe5b0491506129d4565b6060816040519080825280601f01601f191660200182016040528015612a2b5781602001600182028038833980820191505090505b50905060008290505b60008614612ab0576001810390506000600a808881612a4f57fe5b04028703603001905060008160f81b905080848481518110612a6d57fe5b60200101907effffffffffffffffffffffffffffffffffffffffffffffffffffffffffffff1916908160001a905350600a8881612aa657fe5b0497505050612a34565b819450505050505b919050565b6000548110612b34576040517f08c379a00000000000000000000000000000000000000000000000000000000081526004018080602001828103825260108152602001807f496e76616c6964206974656d204944210000000000000000000000000000000081525060200191505060405180910390fd5b60036004811115612b4157fe5b60028281548110612b4e57fe5b906000526020600020906009020160030160149054906101000a900460ff166004811115612b7857fe5b14612bce576040517f08c379a000000000000000000000000000000000000000000000000000000000815260040180806020018281038252602f81526020018061338e602f913960400191505060405180910390fd5b606060028281548110612bdd57fe5b9060005260206000209060090201600601600201805480602002602001604051908101604052809291908181526020018280548015612c7157602002820191906000526020600020905b8160009054906101000a900473ffffffffffffffffffffffffffffffffffffffff1673ffffffffffffffffffffffffffffffffffffffff1681526020019060010190808311612c27575b50505050509050600060028381548110612c8757fe5b906000526020600020906009020160030160009054906101000a900473ffffffffffffffffffffffffffffffffffffffff169050600080905060008090505b8351811015612dd157612cd761326e565b60028681548110612ce457fe5b90600052602060002090600902016006016001016000868481518110612d0657fe5b602002602001015173ffffffffffffffffffffffffffffffffffffffff1673ffffffffffffffffffffffffffffffffffffffff16815260200190815260200160002060405180606001604052908160008201548152602001600182015481526020016002820160009054906101000a900460ff16151515158152505090506001151581604001511515148015612da0575082816020015110155b15612dc357848281518110612db157fe5b60200260200101519350806020015192505b508080600101915050612cc6565b5060008090505b8351811015612f5f57612de961326e565b60028681548110612df657fe5b90600052602060002090600902016006016001016000868481518110612e1857fe5b602002602001015173ffffffffffffffffffffffffffffffffffffffff1673ffffffffffffffffffffffffffffffffffffffff16815260200190815260200160002060405180606001604052908160008201548152602001600182015481526020016002820160009054906101000a900460ff16151515158152505090506001151581604001511515148015612eed57508373ffffffffffffffffffffffffffffffffffffffff16858381518110612ecc57fe5b602002602001015173ffffffffffffffffffffffffffffffffffffffff1614155b15612f5157848281518110612efe57fe5b602002602001015173ffffffffffffffffffffffffffffffffffffffff166108fc82602001519081150290604051600060405180830381858888f19350505050158015612f4f573d6000803e3d6000fd5b505b508080600101915050612dd8565b5060028481548110612f6d57fe5b906000526020600020906009020160030160009054906101000a900473ffffffffffffffffffffffffffffffffffffffff1673ffffffffffffffffffffffffffffffffffffffff166108fc829081150290604051600060405180830381858888f19350505050158015612fe4573d6000803e3d6000fd5b508160028581548110612ff357fe5b906000526020600020906009020160040160006101000a81548173ffffffffffffffffffffffffffffffffffffffff021916908373ffffffffffffffffffffffffffffffffffffffff16021790555050505050565b828054600181600116156101000203166002900490600052602060002090601f016020900481019282601f1061308957805160ff19168380011785556130b7565b828001600101855582156130b7579182015b828111156130b657825182559160200191906001019061309b565b5b5090506130c49190613294565b5090565b604051806101000160405280600081526020016060815260200160608152602001600073ffffffffffffffffffffffffffffffffffffffff1681526020016000600481111561311357fe5b8152602001600073ffffffffffffffffffffffffffffffffffffffff168152602001606081526020016131446132b9565b81525090565b828054600181600116156101000203166002900490600052602060002090601f016020900481019282601f1061318b57805160ff19168380011785556131b9565b828001600101855582156131b9579182015b828111156131b857825182559160200191906001019061319d565b5b5090506131c69190613294565b5090565b828054828255906000526020600020908101928215613243579160200282015b828111156132425782518260006101000a81548173ffffffffffffffffffffffffffffffffffffffff021916908373ffffffffffffffffffffffffffffffffffffffff160217905550916020019190600101906131ea565b5b50905061325091906132d3565b5090565b604051806040016040528060608152602001606081525090565b604051806060016040528060008019168152602001600081526020016000151581525090565b6132b691905b808211156132b257600081600090555060010161329a565b5090565b90565b604051806040016040528060608152602001606081525090565b61331391905b8082111561330f57600081816101000a81549073ffffffffffffffffffffffffffffffffffffffff0219169055506001016132d9565b5090565b9056fe4f6e6c792073656c6c65722063616e207374617274207468652061756374696f6e21496e76616c696420726571756573742c206974656d20776173206e6f7420617661696c61626c6520666f722062696464696e67214f6e6c792073656c6c65722063616e2073746f70207468652061756374696f6e2141756374696f6e206e6f742073746f70706564206f722077696e6e657220616c7265616479206465636c61726564214974656d206e6f742064656c697665726564207965742c207075626c6963206b65792077696c6c20626520617661696c61626c65206f6e6365206974656d2069732064656c697665726564214974656d206e6f7420736f6c64206f7220616c72656164792064656c697665726564214f6e6c792073656c6c65722063616e2073746f70207468652062696464696e67214f6e6c792073656c6c65722063616e2064656c6976657220746865206974656d214974656d206e6f7420617661696c61626c65207965742c20706c65617365207761697420666f72207468652073656c6c657220746f2064656c6976657220697421496e76616c696420726571756573742c206974656d2773206e6f74206174205041595f414e445f56455249465921496e76616c696420726571756573742c206974656d206e6f7420617661696c61626c6520666f722070617920616e642076657269667921a265627a7a72315820f8eb43410d591f504694ed39be7036ccebd9ee9f21b72ccb1a18d018b72d633664736f6c63430005100032",
  "source": "// SPDX-License-Identifier: GPL-3.0\npragma solidity >=0.4.22 <0.9.0;\n\n/**\n * @title A Modern Way\n * @dev Smart contract to facilitate auctions securely\n */\ncontract AModernWay {\n    /**\n     * This is an enum which will help to keep the current status of an item.\n     * The status WAITING signifies that the item is not yet avaialable for auction\n     * The status STARTED signifies that the auction has started and bidders can start bidding\n     * The status PAY_AND_VERIFY signifies that the bidders can pay to verify their bid\n     * The status SOLD signifies that the item is sold to the winner, and money is transferred \n     * and refunded to the seller and bidders respectively.\n     * The status DELIVERED signifies that the item is delivered to the winner\n     */\n    enum status {\n        WAITING,\n        STARTED,\n        PAY_AND_VERIFY,\n        SOLD,\n        DELIVERED\n    }\n\n    struct Bid{\n        bytes32 hashedBid;\n        uint256 bidValue;\n        bool isVerified;\n    }\n\n   \n    struct Auction{\n        string auctionType;\n        mapping(address => Bid) addressToBid;\n        address payable[] bidders;\n    }\n\n     /**\n     * This is our main item struct.\n     * listingID is the the unique ID for each item\n     * sellerID is the address of the seller who wants to sell the item\n     * winnerID is the address of the buyer who wins the auction\n     * itemStatus tells the current status of the item. It uses the enum status defined above\n     */\n    struct Item {\n        uint256 listingID;\n        string name;\n        string description;\n        address payable sellerID;\n        status itemStatus;\n        address winnerID;\n        string encryptedString;\n        Auction auction;\n    }\n\n\n    uint256 numOfItems = 0;\n\n    /**\n     * This mapping takes an address of a user as the input and returns the public key of that corresponding user.\n     * The public key will be required by the seller so that he can encrypt the item string and send the encrypted string to the buyer.\n     * The buyer will then decrpyt the encrypted string using their private key.\n     */\n    mapping(address => string) addressToPublicKey;\n\n    /**\n     * This array stores the list of all items\n     */\n    Item[] items;\n\n    // /**\n    //  * This modifier is used by a function to check if the item with ID = itemID is accessed only by the seller of that item\n    //  * @param itemID is the unique ID of the item\n    //  */\n    // modifier onlySeller(uint256 itemID) {\n    //     require(\n    //         msg.sender == items[itemID].sellerID,\n    //         \"You do not own the item!\"\n    //     );\n    //     _;\n    // }\n\n    // /**\n    //  * This modifier is used by a function to check if the item with ID = itemID is accessed only by the buyer of that item\n    //  * @param itemID is the unique ID of the item\n    //  */\n    // modifier onlyBuyer(uint256 itemID) {\n    //     require(\n    //         msg.sender == items[itemID].buyerID,\n    //         \"You do not own the item!\"\n    //     );\n    //     _;\n    // }\n\n    // /**\n    //  * This modifier is used by a function to check if the item with ID = itemID is in transit i.e. buyer has paid and is awaiting delivery from seller\n    //  * @param itemID is the unique ID of the item\n    //  */\n    // modifier onlyInTransit(uint256 itemID) {\n    //     require(\n    //         items[itemID].itemStatus == status.IN_TRANSIT,\n    //         \"Item not available for delivery!\"\n    //     );\n    //     _;\n    // }\n\n    /**\n     * This function is used by a seller to add a new item to the listing.\n     * @param itemName is the name of the item\n     * @param itemDescription describes the item the seller wants to sell\n     */\n    function addNewItem(\n        string memory itemName,\n        string memory itemDescription\n    ) public {\n        Item memory newItem;\n        newItem.listingID = numOfItems++;\n        newItem.name = itemName;\n        newItem.description = itemDescription;\n        newItem.sellerID = msg.sender;\n        newItem.itemStatus = status.WAITING;\n        newItem.encryptedString = \"Item not available yet, please wait for the seller to deliver it!\";\n        items.push(newItem);\n    }\n\n    /**\n     * This function is used by a seller to start the auction for the item.\n     * @param itemID is the id of the item\n     * @param auctionType describes the type of the auction\n     */\n    function startAuction(\n        uint256 itemID, string memory auctionType\n    ) public {\n        require(\n            itemID < numOfItems,\n            \"Invalid item ID!\"\n        );\n        require(\n            items[itemID].itemStatus == status.WAITING,\n            \"Item not available for auction!\"\n        );\n        require(\n            msg.sender == items[itemID].sellerID,\n            \"Only seller can start the auction!\"\n        );\n        \n        Auction memory auction;\n        auction.auctionType = auctionType;\n        items[itemID].auction = auction;\n        items[itemID].itemStatus = status.STARTED;\n    }\n\n    /**\n     * This function is called by the bidders to bid on the item.\n     * @param itemID is the id of the item\n     * @param hashedBid is the hashed value of the bid to keep the bid sealed\n     */\n    function bidAtAuction(\n        uint256 itemID, bytes32 hashedBid\n    ) public {\n        require(\n            itemID < numOfItems,\n            \"Invalid item ID!\"\n        );\n        require(\n            items[itemID].itemStatus == status.STARTED,\n            \"Item not available for bidding!\"\n        );\n        require(\n            msg.sender != items[itemID].sellerID,\n            \"Seller can not buy their item!\"\n        );\n        require(\n            items[itemID].auction.addressToBid[msg.sender].hashedBid == keccak256(abi.encodePacked(\"\")),\n            \"Can only bid once!\"\n        );\n\n        address buyerAddress = msg.sender;\n        items[itemID].auction.addressToBid[buyerAddress].hashedBid = hashedBid;\n        items[itemID].auction.bidders.push(msg.sender);\n    }\n\n\n    /**\n     * This function is used by a seller to stop the bidding.\n     * @param itemID is the id of the item\n     */\n    function stopBidding(\n        uint256 itemID\n    ) public {\n        require(\n            itemID < numOfItems,\n            \"Invalid item ID!\"\n        );\n        require(\n            items[itemID].itemStatus == status.STARTED,\n            \"Invalid request, item was not available for bidding!\"\n        );\n        require(\n            msg.sender == items[itemID].sellerID,\n            \"Only seller can stop the bidding!\"\n        );\n        \n        items[itemID].itemStatus = status.PAY_AND_VERIFY;\n    }\n\n\n    /**\n     * This function is used by the bidders to pay and verify their bidding.\n     * @param itemID is the id of the item\n     * @param publicKey is the public key of the bidder\n     */\n    function payAndVerifyBid(\n        uint256 itemID, string memory publicKey\n    ) public payable {\n        require(\n            itemID < numOfItems,\n            \"Invalid item ID!\"\n        );\n        require(\n            items[itemID].itemStatus == status.PAY_AND_VERIFY,\n            \"Invalid request, item not available for pay and verify!\"\n        );\n        require(\n            keccak256(abi.encodePacked(msg.value, msg.sender)) == items[itemID].auction.addressToBid[msg.sender].hashedBid,\n            \"Wrong Hash!\"\n        );\n        require(\n            items[itemID].auction.addressToBid[msg.sender].isVerified == false,\n            \"Already verified!\"\n        );\n        \n        address buyerAddress = msg.sender;\n        items[itemID].auction.addressToBid[buyerAddress].bidValue = msg.value;\n        items[itemID].auction.addressToBid[buyerAddress].isVerified = true;\n        addressToPublicKey[buyerAddress] = publicKey;\n    }\n\n    /**\n     * This function is used to find the winner of the auction, and transfer the money to seller and bidders.\n     * @param itemID is the id of the item\n     */\n    function declareWinnerAndTransferMoney(\n        uint256 itemID\n    ) private {\n        require(\n            itemID < numOfItems,\n            \"Invalid item ID!\"\n        );\n        require(\n            items[itemID].itemStatus == status.SOLD,\n            \"Auction not stopped or winner already declared!\"\n        );\n       \n        address payable[] memory bidders = items[itemID].auction.bidders;\n        address winner = items[itemID].sellerID;\n        uint256 maxBidValue = 0;\n        for (uint256 i = 0; i < bidders.length; i++) \n        {\n            Bid memory bid = items[itemID].auction.addressToBid[bidders[i]];\n            if(bid.isVerified == true && bid.bidValue >= maxBidValue) \n            {\n                winner = bidders[i];\n                maxBidValue = bid.bidValue;\n            }\n        }\n        for (uint256 i = 0; i < bidders.length; i++) \n        {\n            Bid memory bid = items[itemID].auction.addressToBid[bidders[i]];\n            if(bid.isVerified == true && bidders[i] != winner) \n            {\n                bidders[i].transfer(bid.bidValue);\n            }\n        }\n        items[itemID].sellerID.transfer(maxBidValue);\n        items[itemID].winnerID = winner;\n    }\n    \n    /**\n     * This function is used by a seller to stop the auction and declare the winner.\n     * @param itemID is the id of the item\n     */\n    function stopAuction(\n        uint256 itemID\n    ) public {\n        require(\n            itemID < numOfItems,\n            \"Invalid item ID!\"\n        );\n        require(\n            items[itemID].itemStatus == status.PAY_AND_VERIFY,\n            \"Invalid request, item's not at PAY_AND_VERIFY!\"\n        );\n        require(\n            msg.sender == items[itemID].sellerID,\n            \"Only seller can stop the auction!\"\n        );\n\n        items[itemID].itemStatus = status.SOLD;\n        declareWinnerAndTransferMoney(itemID);\n    }\n\n    // /**\n    //  * This function is used by a buyer to buy an item.\n    //  * @param itemID is the unique ID for each item\n    //  * @param publicKey is the unique publick key of the buyer\n    //  */\n    // function buyItem(uint256 itemID, string memory publicKey) public payable {\n    //     require(\n    //         items[itemID].itemStatus == status.AVAILABLE,\n    //         \"Item not available for sale!\"\n    //     );\n\n    //     require(\n    //         items[itemID].price == msg.value,\n    //         \"Money not equal to the listing price!\"\n    //     );\n\n    //     address buyerAddress = msg.sender;\n    //     items[itemID].itemStatus = status.IN_TRANSIT;\n    //     items[itemID].buyerID = buyerAddress;\n    //     addressToPublicKey[buyerAddress] = publicKey;\n       \n    // }\n\n    /**\n     * This function is used to get the public Key of the winner.\n     * @param itemID is the unique ID of the item\n     * @return Public Key of the buyer who bought item with ID = itemID\n     */\n    function getWinnerPublicKey(uint256 itemID)\n        public\n        view\n        returns (string memory)\n    {\n        require(\n            itemID < numOfItems,\n            \"Invalid item ID!\"\n        );\n        require(\n            items[itemID].itemStatus == status.SOLD || items[itemID].itemStatus == status.DELIVERED,\n            \"Winner is not declared yet!\"\n        );\n        return addressToPublicKey[items[itemID].winnerID];\n    }\n\n    /**\n     * This function is used by a seller to transfer encrypted string to the buyer.\n     * @param itemID is the unique ID of the item\n     * @param encryptedItem is the encrypted Secret key sent by the seller using buyers Public Key\n     * @param publicKey is the public key of the seller\n     */\n    function deliverItem(uint256 itemID, string memory encryptedItem, string memory publicKey)\n        public\n    {\n        require(\n            itemID < numOfItems,\n            \"Invalid item ID!\"\n        );\n        require(\n            items[itemID].itemStatus == status.SOLD,\n            \"Item not sold or already delivered!\"\n        );\n        require(\n            msg.sender == items[itemID].sellerID,\n            \"Only seller can deliver the item!\"\n        );\n\n        addressToPublicKey[msg.sender] = publicKey;\n        items[itemID].encryptedString = encryptedItem;\n        items[itemID].itemStatus = status.DELIVERED;\n    }\n\n    /**\n     * This function is used to get the public Key of the seller.\n     * @param itemID is the unique ID of the item\n     * @return Public Key of the buyer who bought item with ID = itemID\n     */\n    function getSellerPublicKey(uint256 itemID)\n        public\n        view\n        returns (string memory)\n    {\n        require(\n            itemID < numOfItems,\n            \"Invalid item ID!\"\n        );\n        require(\n            items[itemID].itemStatus == status.DELIVERED,\n            \"Item not delivered yet, public key will be available once item is delivered!\"\n        );\n        return addressToPublicKey[items[itemID].sellerID];\n    }\n\n    /**\n     * This function is used by the winner of the auction to get the encrypted Secret string.\n     * @param itemID is the unique ID of the item\n     * @return encryptedString provided by the seller which can be decrypted by the buyer using their Private Key\n     */\n    function getItem(uint256 itemID)\n        public\n        view\n        returns (string memory)\n    {\n        require(\n            itemID < numOfItems,\n            \"Invalid item ID!\"\n        );\n        require(\n            items[itemID].itemStatus == status.DELIVERED,\n            \"Item not available yet, please wait for the seller to deliver it!\"\n        );\n        require(\n            msg.sender == items[itemID].winnerID,\n            \"Only winner can get the item!\"\n        );\n\n        return items[itemID].encryptedString;\n    }\n\n    /**\n     * This function is used to convert uint256 to string\n     * Taken from here: https://stackoverflow.com/questions/47129173/how-to-convert-uint-to-string-in-solidity\n     * @param _i is a variable of type uint\n     * @return _uintAsString the string representation of _i\n     */\n    function uint2str(uint256 _i)\n        internal\n        pure\n        returns (string memory _uintAsString)\n    {\n        if (_i == 0) {\n            return \"0\";\n        }\n        uint256 j = _i;\n        uint256 len;\n        while (j != 0) {\n            len++;\n            j /= 10;\n        }\n        bytes memory bstr = new bytes(len);\n        uint256 k = len;\n        while (_i != 0) {\n            k = k - 1;\n            uint8 temp = (48 + uint8(_i - (_i / 10) * 10));\n            bytes1 b1 = bytes1(temp);\n            bstr[k] = b1;\n            _i /= 10;\n        }\n        return string(bstr);\n    }\n\n    /**\n     * This function is used by a buyer to view the listing.\n     * @return a string containing list of all available Items for bidding\n     */\n    function viewItemsForBidding() public view returns (string memory) {\n        string memory itemList = \"\";\n\n        for (uint256 i = 0; i < items.length; i++) {\n            if (items[i].itemStatus == status.STARTED) {\n                itemList = string(abi.encodePacked(itemList, \"ID: \"));\n                itemList = string(\n                    abi.encodePacked(itemList, uint2str(items[i].listingID))\n                );\n                itemList = string(abi.encodePacked(itemList, \"; Name: \"));\n                itemList = string(abi.encodePacked(itemList, items[i].name));\n                itemList = string(\n                    abi.encodePacked(itemList, \"; Description: \")\n                );\n                itemList = string(\n                    abi.encodePacked(itemList, items[i].description)\n                );\n                itemList = string(abi.encodePacked(itemList, \"\\n\"));\n            }\n        }\n\n        return itemList;\n    }\n}\n",
  "sourcePath": "/home/manish/blockchain/Blockchain_Auction/2018114005/contracts/AModernWay.sol",
  "compiler": {
    "name": "solc",
    "version": "0.5.16+commit.9c3226ce.Emscripten.clang"
  },
  "schemaVersion": "3.4.3",
  "updatedAt": "2021-10-11T11:39:47.007Z",
  "networkType": "ethereum",
  "devdoc": {
    "details": "Smart contract to facilitate auctions securely",
    "methods": {
      "addNewItem(string,string)": {
        "params": {
          "itemDescription": "describes the item the seller wants to sell",
          "itemName": "is the name of the item"
        }
      },
      "bidAtAuction(uint256,bytes32)": {
        "params": {
          "hashedBid": "is the hashed value of the bid to keep the bid sealed",
          "itemID": "is the id of the item"
        }
      },
      "deliverItem(uint256,string,string)": {
        "params": {
          "encryptedItem": "is the encrypted Secret key sent by the seller using buyers Public Key",
          "itemID": "is the unique ID of the item",
          "publicKey": "is the public key of the seller"
        }
      },
      "getItem(uint256)": {
        "params": {
          "itemID": "is the unique ID of the item"
        },
        "return": "encryptedString provided by the seller which can be decrypted by the buyer using their Private Key"
      },
      "getSellerPublicKey(uint256)": {
        "params": {
          "itemID": "is the unique ID of the item"
        },
        "return": "Public Key of the buyer who bought item with ID = itemID"
      },
      "getWinnerPublicKey(uint256)": {
        "params": {
          "itemID": "is the unique ID of the item"
        },
        "return": "Public Key of the buyer who bought item with ID = itemID"
      },
      "payAndVerifyBid(uint256,string)": {
        "params": {
          "itemID": "is the id of the item",
          "publicKey": "is the public key of the bidder"
        }
      },
      "startAuction(uint256,string)": {
        "params": {
          "auctionType": "describes the type of the auction",
          "itemID": "is the id of the item"
        }
      },
      "stopAuction(uint256)": {
        "params": {
          "itemID": "is the id of the item"
        }
      },
      "stopBidding(uint256)": {
        "params": {
          "itemID": "is the id of the item"
        }
      },
      "viewItemsForBidding()": {
        "return": "a string containing list of all available Items for bidding"
      }
    },
    "title": "A Modern Way"
  },
  "userdoc": {
    "methods": {
      "addNewItem(string,string)": {
        "notice": "This function is used by a seller to add a new item to the listing."
      },
      "bidAtAuction(uint256,bytes32)": {
        "notice": "This function is called by the bidders to bid on the item."
      },
      "deliverItem(uint256,string,string)": {
        "notice": "This function is used by a seller to transfer encrypted string to the buyer."
      },
      "getItem(uint256)": {
        "notice": "This function is used by the winner of the auction to get the encrypted Secret string."
      },
      "getSellerPublicKey(uint256)": {
        "notice": "This function is used to get the public Key of the seller."
      },
      "getWinnerPublicKey(uint256)": {
        "notice": "This function is used to get the public Key of the winner."
      },
      "payAndVerifyBid(uint256,string)": {
        "notice": "This function is used by the bidders to pay and verify their bidding."
      },
      "startAuction(uint256,string)": {
        "notice": "This function is used by a seller to start the auction for the item."
      },
      "stopAuction(uint256)": {
        "notice": "This function is used by a seller to stop the auction and declare the winner."
      },
      "stopBidding(uint256)": {
        "notice": "This function is used by a seller to stop the bidding."
      },
      "viewItemsForBidding()": {
        "notice": "This function is used by a buyer to view the listing."
      }
    }
  }
}